{
  "contractName": "Selection",
  "abi": [
    {
      "anonymous": false,
      "inputs": [
        {
          "indexed": true,
          "internalType": "uint256",
          "name": "requestId",
          "type": "uint256"
        },
        {
          "indexed": true,
          "internalType": "uint256",
          "name": "methodId",
          "type": "uint256"
        },
        {
          "indexed": false,
          "internalType": "uint8",
          "name": "mode",
          "type": "uint8"
        },
        {
          "indexed": false,
          "internalType": "uint256",
          "name": "primaryOracle",
          "type": "uint256"
        },
        {
          "indexed": false,
          "internalType": "uint256",
          "name": "backupOracle",
          "type": "uint256"
        },
        {
          "indexed": false,
          "internalType": "bytes32",
          "name": "policyHash",
          "type": "bytes32"
        },
        {
          "indexed": false,
          "internalType": "address",
          "name": "submitter",
          "type": "address"
        },
        {
          "indexed": false,
          "internalType": "uint256",
          "name": "timestamp",
          "type": "uint256"
        }
      ],
      "name": "SelectionSubmitted",
      "type": "event"
    },
    {
      "constant": true,
      "inputs": [
        {
          "internalType": "uint256",
          "name": "",
          "type": "uint256"
        }
      ],
      "name": "results",
      "outputs": [
        {
          "internalType": "uint256",
          "name": "requestId",
          "type": "uint256"
        },
        {
          "internalType": "uint256",
          "name": "methodId",
          "type": "uint256"
        },
        {
          "internalType": "uint8",
          "name": "mode",
          "type": "uint8"
        },
        {
          "internalType": "uint256",
          "name": "primaryOracle",
          "type": "uint256"
        },
        {
          "internalType": "uint256",
          "name": "backupOracle",
          "type": "uint256"
        },
        {
          "internalType": "bytes32",
          "name": "policyHash",
          "type": "bytes32"
        },
        {
          "internalType": "address",
          "name": "submitter",
          "type": "address"
        },
        {
          "internalType": "uint256",
          "name": "timestamp",
          "type": "uint256"
        }
      ],
      "payable": false,
      "stateMutability": "view",
      "type": "function"
    },
    {
      "constant": false,
      "inputs": [
        {
          "internalType": "uint256",
          "name": "requestId",
          "type": "uint256"
        },
        {
          "internalType": "uint256",
          "name": "methodId",
          "type": "uint256"
        },
        {
          "internalType": "uint8",
          "name": "mode",
          "type": "uint8"
        },
        {
          "internalType": "uint256",
          "name": "primaryOracle",
          "type": "uint256"
        },
        {
          "internalType": "uint256",
          "name": "backupOracle",
          "type": "uint256"
        },
        {
          "internalType": "bytes32",
          "name": "policyHash",
          "type": "bytes32"
        }
      ],
      "name": "submitSelection",
      "outputs": [
        {
          "internalType": "bool",
          "name": "",
          "type": "bool"
        }
      ],
      "payable": false,
      "stateMutability": "nonpayable",
      "type": "function"
    },
    {
      "constant": true,
      "inputs": [
        {
          "internalType": "uint256",
          "name": "requestId",
          "type": "uint256"
        }
      ],
      "name": "getSelection",
      "outputs": [
        {
          "internalType": "uint256",
          "name": "methodId",
          "type": "uint256"
        },
        {
          "internalType": "uint8",
          "name": "mode",
          "type": "uint8"
        },
        {
          "internalType": "uint256",
          "name": "primaryOracle",
          "type": "uint256"
        },
        {
          "internalType": "uint256",
          "name": "backupOracle",
          "type": "uint256"
        },
        {
          "internalType": "bytes32",
          "name": "policyHash",
          "type": "bytes32"
        },
        {
          "internalType": "address",
          "name": "submitter",
          "type": "address"
        },
        {
          "internalType": "uint256",
          "name": "timestamp",
          "type": "uint256"
        }
      ],
      "payable": false,
      "stateMutability": "view",
      "type": "function"
    },
    {
      "constant": false,
      "inputs": [
        {
          "internalType": "uint256",
          "name": "ac",
          "type": "uint256"
        }
      ],
      "name": "ReAction",
      "outputs": [
        {
          "internalType": "uint256",
          "name": "",
          "type": "uint256"
        }
      ],
      "payable": false,
      "stateMutability": "nonpayable",
      "type": "function"
    },
    {
      "constant": true,
      "inputs": [],
      "name": "SeAction",
      "outputs": [
        {
          "internalType": "uint256",
          "name": "",
          "type": "uint256"
        }
      ],
      "payable": false,
      "stateMutability": "view",
      "type": "function"
    }
  ],
  "bytecode": "0x608060405234801561001057600080fd5b506103fe806100206000396000f3fe608060405234801561001057600080fd5b50600436106100575760003560e01c80631b0c27da1461005c578063626fd353146100c55780636320418714610125578063b6880b3b14610154578063b7c04ac41461015c575b600080fd5b6100796004803603602081101561007257600080fd5b50356101ae565b60408051988952602089019790975260ff909516878701526060870193909352608086019190915260a08501526001600160a01b031660c084015260e083015251908190036101000190f35b6100e2600480360360208110156100db57600080fd5b5035610201565b6040805197885260ff909616602088015286860194909452606086019290925260808501526001600160a01b031660a084015260c0830152519081900360e00190f35b6101426004803603602081101561013b57600080fd5b503561024e565b60408051918252519081900360200190f35b610142610256565b61019a600480360360c081101561017257600080fd5b5080359060208101359060ff6040820135169060608101359060808101359060a0013561025c565b604080519115158252519081900360200190f35b600060208190529081526040902080546001820154600283015460038401546004850154600586015460068701546007909701549596949560ff909416949293919290916001600160a01b039091169088565b6000908152602081905260409020600181015460028201546003830154600484015460058501546006860154600790960154949660ff909416959294919390926001600160a01b03169190565b600181905590565b60015490565b60006040518061010001604052808881526020018781526020018660ff168152602001858152602001848152602001838152602001336001600160a01b0316815260200142815250600080898152602001908152602001600020600082015181600001556020820151816001015560408201518160020160006101000a81548160ff021916908360ff160217905550606082015181600301556080820151816004015560a0820151816005015560c08201518160060160006101000a8154816001600160a01b0302191690836001600160a01b0316021790555060e0820151816007015590505085877f472448032b90b803d79d77c12e3eb2394c45ee7d2f9a04cfdaa99f269d38c203878787873342604051808760ff1660ff168152602001868152602001858152602001848152602001836001600160a01b03166001600160a01b03168152602001828152602001965050505050505060405180910390a3506001969550505050505056fea265627a7a7231582037d71e5ad2a3c0d23b5651563d106e0db24edd4aa67d5a12a8c1522c7e64511d64736f6c634300050c0032",
  "source": "pragma solidity ^0.5.12;\r\n\r\ncontract Selection {\r\n    struct SelectionResult {\r\n        uint requestId;\r\n        uint methodId;\r\n        uint8 mode;\r\n        uint primaryOracle;\r\n        uint backupOracle;\r\n        bytes32 policyHash;\r\n        address submitter;\r\n        uint timestamp;\r\n    }\r\n\r\n    mapping(uint => SelectionResult) public results;\r\n\r\n    event SelectionSubmitted(\r\n        uint indexed requestId,\r\n        uint indexed methodId,\r\n        uint8 mode,\r\n        uint primaryOracle,\r\n        uint backupOracle,\r\n        bytes32 policyHash,\r\n        address submitter,\r\n        uint timestamp\r\n    );\r\n\r\n    function submitSelection(\r\n        uint requestId,\r\n        uint methodId,\r\n        uint8 mode,\r\n        uint primaryOracle,\r\n        uint backupOracle,\r\n        bytes32 policyHash\r\n    )\r\n        public\r\n        returns (bool)\r\n    {\r\n        results[requestId] = SelectionResult(\r\n            requestId,\r\n            methodId,\r\n            mode,\r\n            primaryOracle,\r\n            backupOracle,\r\n            policyHash,\r\n            msg.sender,\r\n            now\r\n        );\r\n\r\n        emit SelectionSubmitted(\r\n            requestId,\r\n            methodId,\r\n            mode,\r\n            primaryOracle,\r\n            backupOracle,\r\n            policyHash,\r\n            msg.sender,\r\n            now\r\n        );\r\n\r\n        return true;\r\n    }\r\n\r\n    function getSelection(uint requestId)\r\n        public\r\n        view\r\n        returns (\r\n            uint methodId,\r\n            uint8 mode,\r\n            uint primaryOracle,\r\n            uint backupOracle,\r\n            bytes32 policyHash,\r\n            address submitter,\r\n            uint timestamp\r\n        )\r\n    {\r\n        SelectionResult storage r = results[requestId];\r\n\r\n        return (\r\n            r.methodId,\r\n            r.mode,\r\n            r.primaryOracle,\r\n            r.backupOracle,\r\n            r.policyHash,\r\n            r.submitter,\r\n            r.timestamp\r\n        );\r\n    }\r\n\r\n    // Backward-compatible interface for the original code.\r\n    uint action;\r\n\r\n    function ReAction(uint ac) public returns(uint) {\r\n        action = ac;\r\n        return action;\r\n    }\r\n\r\n    function SeAction() public view returns(uint) {\r\n        return action;\r\n    }\r\n}",
  "sourcePath": "E:\\keyan\\code\\TCO\\TCO-DRL\\TCO-DRL_on blockchain\\contracts\\Test.sol",
  "compiler": {
    "name": "solc",
    "version": "0.5.12+commit.7709ece9.Emscripten.clang"
  },
  "schemaVersion": "3.4.16",
  "updatedAt": "2026-05-12T08:19:24.549Z",
  "devdoc": {
    "methods": {}
  },
  "userdoc": {
    "methods": {}
  }
}